{
  "_format": "hh-sol-artifact-1",
  "contractName": "Bets",
  "sourceName": "contracts/Bets.sol",
  "abi": [
    {
      "inputs": [
        {
          "internalType": "uint256",
          "name": "minBet",
          "type": "uint256"
        }
      ],
      "stateMutability": "nonpayable",
      "type": "constructor"
    },
    {
      "anonymous": false,
      "inputs": [
        {
          "indexed": false,
          "internalType": "uint256",
          "name": "id",
          "type": "uint256"
        },
        {
          "indexed": false,
          "internalType": "uint256",
          "name": "amount",
          "type": "uint256"
        },
        {
          "indexed": false,
          "internalType": "address",
          "name": "player",
          "type": "address"
        }
      ],
      "name": "BetMade",
      "type": "event"
    },
    {
      "anonymous": false,
      "inputs": [
        {
          "indexed": false,
          "internalType": "uint256",
          "name": "id",
          "type": "uint256"
        },
        {
          "indexed": false,
          "internalType": "enum Bets.Stage",
          "name": "stage",
          "type": "uint8"
        }
      ],
      "name": "ChangeGameStage",
      "type": "event"
    },
    {
      "anonymous": false,
      "inputs": [
        {
          "indexed": false,
          "internalType": "uint256",
          "name": "id",
          "type": "uint256"
        },
        {
          "indexed": false,
          "internalType": "address",
          "name": "player",
          "type": "address"
        }
      ],
      "name": "DiceThrown",
      "type": "event"
    },
    {
      "anonymous": false,
      "inputs": [
        {
          "indexed": false,
          "internalType": "uint256",
          "name": "id",
          "type": "uint256"
        },
        {
          "indexed": false,
          "internalType": "address",
          "name": "user1",
          "type": "address"
        }
      ],
      "name": "GameStarted",
      "type": "event"
    },
    {
      "anonymous": false,
      "inputs": [
        {
          "indexed": false,
          "internalType": "uint256",
          "name": "newBet",
          "type": "uint256"
        }
      ],
      "name": "MinBetChanges",
      "type": "event"
    },
    {
      "anonymous": false,
      "inputs": [
        {
          "indexed": true,
          "internalType": "address",
          "name": "previousOwner",
          "type": "address"
        },
        {
          "indexed": true,
          "internalType": "address",
          "name": "newOwner",
          "type": "address"
        }
      ],
      "name": "OwnershipTransferred",
      "type": "event"
    },
    {
      "inputs": [
        {
          "internalType": "uint256",
          "name": "id",
          "type": "uint256"
        }
      ],
      "name": "bet",
      "outputs": [],
      "stateMutability": "payable",
      "type": "function"
    },
    {
      "inputs": [
        {
          "internalType": "uint256",
          "name": "id",
          "type": "uint256"
        }
      ],
      "name": "enterGame",
      "outputs": [],
      "stateMutability": "nonpayable",
      "type": "function"
    },
    {
      "inputs": [
        {
          "internalType": "uint256",
          "name": "id",
          "type": "uint256"
        }
      ],
      "name": "getFullGameInfo",
      "outputs": [
        {
          "components": [
            {
              "internalType": "address",
              "name": "user1",
              "type": "address"
            },
            {
              "internalType": "address",
              "name": "user2",
              "type": "address"
            },
            {
              "internalType": "uint256",
              "name": "betsUser1",
              "type": "uint256"
            },
            {
              "internalType": "uint256",
              "name": "betsUser2",
              "type": "uint256"
            },
            {
              "internalType": "bool",
              "name": "throwing",
              "type": "bool"
            },
            {
              "internalType": "address",
              "name": "winner",
              "type": "address"
            },
            {
              "internalType": "enum Bets.Stage",
              "name": "stage",
              "type": "uint8"
            },
            {
              "internalType": "enum Bets.Turn",
              "name": "turn",
              "type": "uint8"
            }
          ],
          "internalType": "struct Bets.Game",
          "name": "",
          "type": "tuple"
        },
        {
          "components": [
            {
              "internalType": "uint256[]",
              "name": "user1",
              "type": "uint256[]"
            },
            {
              "internalType": "uint256[]",
              "name": "user2",
              "type": "uint256[]"
            }
          ],
          "internalType": "struct Bets.Result",
          "name": "",
          "type": "tuple"
        }
      ],
      "stateMutability": "view",
      "type": "function"
    },
    {
      "inputs": [
        {
          "internalType": "uint256",
          "name": "id",
          "type": "uint256"
        }
      ],
      "name": "getGame",
      "outputs": [
        {
          "components": [
            {
              "internalType": "address",
              "name": "user1",
              "type": "address"
            },
            {
              "internalType": "address",
              "name": "user2",
              "type": "address"
            },
            {
              "internalType": "uint256",
              "name": "betsUser1",
              "type": "uint256"
            },
            {
              "internalType": "uint256",
              "name": "betsUser2",
              "type": "uint256"
            },
            {
              "internalType": "bool",
              "name": "throwing",
              "type": "bool"
            },
            {
              "internalType": "address",
              "name": "winner",
              "type": "address"
            },
            {
              "internalType": "enum Bets.Stage",
              "name": "stage",
              "type": "uint8"
            },
            {
              "internalType": "enum Bets.Turn",
              "name": "turn",
              "type": "uint8"
            }
          ],
          "internalType": "struct Bets.Game",
          "name": "",
          "type": "tuple"
        }
      ],
      "stateMutability": "view",
      "type": "function"
    },
    {
      "inputs": [],
      "name": "getMinBet",
      "outputs": [
        {
          "internalType": "uint256",
          "name": "",
          "type": "uint256"
        }
      ],
      "stateMutability": "view",
      "type": "function"
    },
    {
      "inputs": [],
      "name": "nextGameID",
      "outputs": [
        {
          "internalType": "uint256",
          "name": "",
          "type": "uint256"
        }
      ],
      "stateMutability": "view",
      "type": "function"
    },
    {
      "inputs": [],
      "name": "owner",
      "outputs": [
        {
          "internalType": "address",
          "name": "",
          "type": "address"
        }
      ],
      "stateMutability": "view",
      "type": "function"
    },
    {
      "inputs": [
        {
          "internalType": "uint256",
          "name": "id",
          "type": "uint256"
        }
      ],
      "name": "pass",
      "outputs": [],
      "stateMutability": "nonpayable",
      "type": "function"
    },
    {
      "inputs": [],
      "name": "renounceOwnership",
      "outputs": [],
      "stateMutability": "nonpayable",
      "type": "function"
    },
    {
      "inputs": [
        {
          "internalType": "uint256",
          "name": "id",
          "type": "uint256"
        }
      ],
      "name": "seeResults",
      "outputs": [
        {
          "internalType": "uint256[]",
          "name": "",
          "type": "uint256[]"
        }
      ],
      "stateMutability": "view",
      "type": "function"
    },
    {
      "inputs": [
        {
          "internalType": "uint256",
          "name": "newMinBet",
          "type": "uint256"
        }
      ],
      "name": "setMinBet",
      "outputs": [],
      "stateMutability": "nonpayable",
      "type": "function"
    },
    {
      "inputs": [],
      "name": "startGame",
      "outputs": [],
      "stateMutability": "nonpayable",
      "type": "function"
    },
    {
      "inputs": [
        {
          "internalType": "uint256",
          "name": "id",
          "type": "uint256"
        }
      ],
      "name": "throwDice",
      "outputs": [],
      "stateMutability": "nonpayable",
      "type": "function"
    },
    {
      "inputs": [
        {
          "internalType": "address",
          "name": "newOwner",
          "type": "address"
        }
      ],
      "name": "transferOwnership",
      "outputs": [],
      "stateMutability": "nonpayable",
      "type": "function"
    }
  ],
  "bytecode": "0x608060405234801561001057600080fd5b5060405162001e4538038062001e458339810160408190526100319161009b565b61003a3361004b565b60018055600a6002556003556100b4565b600080546001600160a01b038381166001600160a01b0319831681178455604051919092169283917f8be0079c531659141344cd1fd0a4f28419497f9722a3daafe3b4186f6b6457e09190a35050565b6000602082840312156100ad57600080fd5b5051919050565b611d8180620000c46000396000f3fe6080604052600436106100dd5760003560e01c80638da5cb5b1161007f578063d67c996111610059578063d67c99611461021c578063e1d705211461023c578063f2fde38b1461026a578063fd8f9ade1461028a57600080fd5b80638da5cb5b146101b2578063a2f77bcc146101da578063d65ab5f21461020757600080fd5b8063715018a6116100bb578063715018a61461013d5780637365870b146101525780637d47318a1461016557806388ea41b91461019257600080fd5b806324c37507146100e257806343d6582b14610106578063673ee37c14610128575b600080fd5b3480156100ee57600080fd5b506003545b6040519081526020015b60405180910390f35b34801561011257600080fd5b50610126610121366004611a41565b6102aa565b005b34801561013457600080fd5b506001546100f3565b34801561014957600080fd5b506101266103a0565b610126610160366004611a41565b6103b4565b34801561017157600080fd5b50610185610180366004611a41565b61069a565b6040516100fd9190611a5a565b34801561019e57600080fd5b506101266101ad366004611a41565b6107a2565b3480156101be57600080fd5b506000546040516001600160a01b0390911681526020016100fd565b3480156101e657600080fd5b506101fa6101f5366004611a41565b61082f565b6040516100fd9190611b41565b34801561021357600080fd5b50610126610916565b34801561022857600080fd5b50610126610237366004611a41565b610ac2565b34801561024857600080fd5b5061025c610257366004611a41565b610db7565b6040516100fd929190611b8b565b34801561027657600080fd5b50610126610285366004611be1565b610f7b565b34801561029657600080fd5b506101266102a5366004611a41565b610ff4565b6000818152600460205260409020600101546001600160a01b0316156103235760405162461bcd60e51b8152602060048201526024808201527f426574733a2067616d6520616c726561647920686173207365636f6e6420706c60448201526330bcb2b960e11b60648201526084015b60405180910390fd5b600081815260046020819052604091829020600180820180546001600160a01b031916331790559101805460ff61ffff60a81b011916600161010160a81b0117905590517f155738f76e9466202863a65a9091f156fd2b158c3c5a7d68744c9645b67192129161039591849190611c0a565b60405180910390a150565b6103a86111d2565b6103b2600061122c565b565b6003543410156104115760405162461bcd60e51b815260206004820152602260248201527f426574733a206e6f7420656e6f7567682066756e647320666f72206d696e2062604482015261195d60f21b606482015260840161031a565b600081815260046020819052604082200154600160b01b900460ff16600281111561043e5761043e611a9e565b14156104875760405162461bcd60e51b8152602060048201526018602482015277426574733a2062657473206e6f7420617661696c61626c6560401b604482015260640161031a565b610491813361127c565b6104ad5760405162461bcd60e51b815260040161031a90611c1e565b6104b781336112c9565b6104d35760405162461bcd60e51b815260040161031a90611c4b565b6000818152600460208190526040909120015460ff16156105315760405162461bcd60e51b8152602060048201526018602482015277426574733a206e65656420746f207468726f77206469636560401b604482015260640161031a565b61053c81343361139b565b61057f5760405162461bcd60e51b815260206004820152601460248201527310995d1cce8818995d1cc81b9bdd08195c5d585b60621b604482015260640161031a565b61058a81343361143b565b600081815260046020526040902060038101546002909101541415610635576105b2816114c5565b60046000828152600460208190526040909120810154600160a81b900460ff16908111156105e2576105e2611a9e565b1415610613576105f18161159a565b600081815260046020819052604090912001805460ff60b01b1916905561065b565b600081815260046020819052604090912001805460ff1916600117905561065b565b600081815260046020819052604090912001805460ff1916600117905561065b81611844565b6040805182815234602082015233918101919091527fe008b05e9e02262a35027006599164f1d0b7bc9f2ed2094d4e8efd14c6fb1b2090606001610395565b60606106a6823361127c565b6106c25760405162461bcd60e51b815260040161031a90611c1e565b6000828152600460205260409020546001600160a01b0316331415610741576000828152600560209081526040918290208054835181840281018401909452808452909183018282801561073557602002820191906000526020600020905b815481526020019060010190808311610721575b50505050509050919050565b6000828152600560209081526040918290206001018054835181840281018401909452808452909183018282801561073557602002820191906000526020600020908154815260200190600101908083116107215750505050509050919050565b6107aa6111d2565b600081116107fa5760405162461bcd60e51b815260206004820152601f60248201527f426574733a206265742073686f756c64206265206d6f7265207468616e203000604482015260640161031a565b60038190556040518181527f41adf4aeda9ffca3a19a95e668c4505114c0b9c4542889701a749ff8fd71b46e90602001610395565b61083761199d565b6000828152600460208181526040928390208351610100808201865282546001600160a01b0390811683526001840154811694830194909452600283015495820195909552600382015460608201528184015460ff8082161515608084015295810490931660a082015293909260c0850192600160a81b9004909116908111156108c3576108c3611a9e565b60048111156108d4576108d4611a9e565b81526020016004820160169054906101000a900460ff1660028111156108fc576108fc611a9e565b600281111561090d5761090d611a9e565b90525092915050565b61091e61199d565b604080518082019091526060808252602082015233825260018054600081815260046020818152604092839020875181546001600160a01b039182166001600160a01b03199182161783559289015196820180549782169790931696909617909155918601516002830155606086015160038301556080860151828201805460a089015190961661010002610100600160a81b0319921515929092166001600160a81b0319909616959095171780855560c08701519394879492909160ff60a81b191690600160a81b9084908111156109f9576109f9611a9e565b021790555060e082015160048201805460ff60b01b1916600160b01b836002811115610a2757610a27611a9e565b021790555050506000818152600560209081526040909120835180518593610a539284929101906119e1565b506020828101518051610a6c92600185019201906119e1565b50506001805491506000610a7f83611c8e565b9091555050604080518281523360208201527ffadb9547847a0c2c31f4c02590545e318d33d7aae99071caecf3fa4ce3cd7dca91015b60405180910390a1505050565b600081815260046020819052604082200154600160b01b900460ff166002811115610aef57610aef611a9e565b1415610b385760405162461bcd60e51b8152602060048201526018602482015277426574733a2062657473206e6f7420617661696c61626c6560401b604482015260640161031a565b610b42813361127c565b610b5e5760405162461bcd60e51b815260040161031a90611c1e565b610b6881336112c9565b610b845760405162461bcd60e51b815260040161031a90611c4b565b6000818152600460208190526040909120015460ff1615610be25760405162461bcd60e51b8152602060048201526018602482015277426574733a206e65656420746f207468726f77206469636560401b604482015260640161031a565b600060646002546064610bf59190611ca9565b60008481526004602052604090206003810154600290910154610c189190611cc0565b610c229190611cd8565b610c2c9190611d0d565b6000838152600460205260408120600381015460029091015492935090918391610c5591611cc0565b610c5f9190611ca9565b9050610c736000546001600160a01b031690565b6001600160a01b03166108fc829081150290604051600060405180830381858888f19350505050158015610cab573d6000803e3d6000fd5b506000838152600460205260409020546001600160a01b0316331415610d18576000838152600460205260408082206001015490516001600160a01b039091169184156108fc02918591818181858888f19350505050158015610d12573d6000803e3d6000fd5b50610d5e565b6000838152600460205260408082205490516001600160a01b039091169184156108fc02918591818181858888f19350505050158015610d5c573d6000803e3d6000fd5b505b6000838152600460208190526040918290208101805460ff61ffff60a81b011916600160aa1b17905590517f155738f76e9466202863a65a9091f156fd2b158c3c5a7d68744c9645b671921291610ab591869190611c0a565b610dbf61199d565b6040805180820190915260608082526020820152610ddb6111d2565b600083815260046020818152604080842060058352938190208151610100808201845286546001600160a01b0390811683526001880154811695830195909552600287015493820193909352600386015460608201528585015460ff8082161515608084015293810490941660a082015290939092859260c0850192600160a81b9092041690811115610e7057610e70611a9e565b6004811115610e8157610e81611a9e565b81526020016004820160169054906101000a900460ff166002811115610ea957610ea9611a9e565b6002811115610eba57610eba611a9e565b9052506040805183546060602082028301810184529282018181529395509092849284928491840182828015610f0f57602002820191906000526020600020905b815481526020019060010190808311610efb575b5050505050815260200160018201805480602002602001604051908101604052809291908181526020018280548015610f6757602002820191906000526020600020905b815481526020019060010190808311610f53575b505050505081525050905091509150915091565b610f836111d2565b6001600160a01b038116610fe85760405162461bcd60e51b815260206004820152602660248201527f4f776e61626c653a206e6577206f776e657220697320746865207a65726f206160448201526564647265737360d01b606482015260840161031a565b610ff18161122c565b50565b6000818152600460208190526040909120015460ff1661104c5760405162461bcd60e51b8152602060048201526013602482015272426574733a206e6f7420617661696c61626c6560681b604482015260640161031a565b611056813361127c565b6110725760405162461bcd60e51b815260040161031a90611c1e565b61107c81336112c9565b6110985760405162461bcd60e51b815260040161031a90611c4b565b6000600542336040516020016110ca92919091825260601b6bffffffffffffffffffffffff1916602082015260340190565b6040516020818303038152906040528051906020012060001c6110ed9190611d21565b6000838152600460205260409020549091506001600160a01b0316331415611143576000828152600560205260409020611128826001611cc0565b81546001810183556000928352602090922090910155611179565b6000828152600560205260409020600190810190611162908390611cc0565b815460018101835560009283526020909220909101555b600082815260046020818152604092839020909101805460ff19169055815184815233918101919091527f048ae2588b5cf8b969f0fb273bc998402bc08bef59555748a6ae9664f262a7dc910160405180910390a15050565b6000546001600160a01b031633146103b25760405162461bcd60e51b815260206004820181905260248201527f4f776e61626c653a2063616c6c6572206973206e6f7420746865206f776e6572604482015260640161031a565b600080546001600160a01b038381166001600160a01b0319831681178455604051919092169283917f8be0079c531659141344cd1fd0a4f28419497f9722a3daafe3b4186f6b6457e09190a35050565b6000828152600460205260408120546001600160a01b03838116911614806112c057506000838152600460205260409020600101546001600160a01b038381169116145b90505b92915050565b6000828152600460205260408120546001600160a01b03838116911614801561131f5750600160008481526004602081905260409091200154600160b01b900460ff16600281111561131d5761131d611a9e565b145b1561132c575060016112c3565b6000838152600460205260409020600101546001600160a01b0383811691161480156113855750600260008481526004602081905260409091200154600160b01b900460ff16600281111561138357611383611a9e565b145b15611392575060016112c3565b50600092915050565b6000838152600460205260408120600381015460029091015414156113c257506001611434565b6000848152600460205260409020546001600160a01b03838116911614156114105760008481526004602052604090206003810154600290910154611408908590611cc0565b149050611434565b60008481526004602052604090206002810154600390910154611408908590611cc0565b9392505050565b6000838152600460205260409020546001600160a01b03828116911614156114915760008381526004602052604090206002015461147a908390611cc0565b600084815260046020526040902060020155505050565b6000838152600460205260409020600301546114ae908390611cc0565b600084815260046020526040902060030155505050565b6000818152600460208190526040909120810154600160a81b900460ff16908111156114f3576114f3611a9e565b6114fe906001611cc0565b600481111561150f5761150f611a9e565b600082815260046020819052604090912081018054909160ff60a81b1990911690600160a81b90849081111561154757611547611a9e565b0217905550600081815260046020819052604091829020015490517f155738f76e9466202863a65a9091f156fd2b158c3c5a7d68744c9645b671921291610395918491600160a81b900460ff1690611c0a565b6000606460025460646115ad9190611ca9565b600084815260046020526040902060038101546002909101546115d09190611cc0565b6115da9190611cd8565b6115e49190611d0d565b600083815260046020526040812060038101546002909101549293509091839161160d91611cc0565b6116179190611ca9565b905061162b6000546001600160a01b031690565b6001600160a01b03166108fc829081150290604051600060405180830381858888f19350505050158015611663573d6000803e3d6000fd5b50600061166f846118c4565b9050600061167c85611931565b90508082111561170a576000858152600460205260408082205490516001600160a01b039091169186156108fc02918791818181858888f193505050501580156116ca573d6000803e3d6000fd5b505050600092835250506004602081905260409091208054910180546001600160a01b0390921661010002610100600160a81b0319909216919091179055565b8181111561179c576000858152600460205260408082206001015490516001600160a01b039091169186156108fc02918791818181858888f19350505050158015611759573d6000803e3d6000fd5b505050600092835250506004602081905260409091206001810154910180546001600160a01b0390921661010002610100600160a81b0319909216919091179055565b6000858152600460205260409020546001600160a01b03166108fc6117c2600287611d0d565b6040518115909202916000818181858888f193505050501580156117ea573d6000803e3d6000fd5b506000858152600460205260409020600101546001600160a01b03166108fc611814600287611d0d565b6040518115909202916000818181858888f1935050505015801561183c573d6000803e3d6000fd5b505050505050565b600160008281526004602081905260409091200154600160b01b900460ff16600281111561187457611874611a9e565b141561189f57600090815260046020819052604090912001805460ff60b01b1916600160b11b179055565b600090815260046020819052604090912001805460ff60b01b1916600160b01b179055565b60008060005b60008481526005602052604090205481101561192a57600084815260056020526040902080548290811061190057611900611d35565b9060005260206000200154826119169190611cc0565b91508061192281611c8e565b9150506118ca565b5092915050565b60008060005b60008481526005602052604090206001015481101561192a57600084815260056020526040902060010180548290811061197357611973611d35565b9060005260206000200154826119899190611cc0565b91508061199581611c8e565b915050611937565b6040805161010081018252600080825260208201819052918101829052606081018290526080810182905260a081018290529060c082019081526020016000905290565b828054828255906000526020600020908101928215611a1c579160200282015b82811115611a1c578251825591602001919060010190611a01565b50611a28929150611a2c565b5090565b5b80821115611a285760008155600101611a2d565b600060208284031215611a5357600080fd5b5035919050565b6020808252825182820181905260009190848201906040850190845b81811015611a9257835183529284019291840191600101611a76565b50909695505050505050565b634e487b7160e01b600052602160045260246000fd5b60058110611ac457611ac4611a9e565b9052565b60018060a01b0380825116835280602083015116602084015260408201516040840152606082015160608401526080820151151560808401528060a08301511660a08401525060c0810151611b2060c0840182611ab4565b5060e081015160038110611b3657611b36611a9e565b8060e0840152505050565b61010081016112c38284611ac8565b600081518084526020808501945080840160005b83811015611b8057815187529582019590820190600101611b64565b509495945050505050565b6000610120611b9a8386611ac8565b806101008401528351604082850152611bb7610160850182611b50565b915050602084015161011f1984830301610140850152611bd78282611b50565b9695505050505050565b600060208284031215611bf357600080fd5b81356001600160a01b038116811461143457600080fd5b828152604081016114346020830184611ab4565b602080825260139082015272426574733a206e6f7420796f75722067616d6560681b604082015260600190565b6020808252601390820152722132ba399d103737ba103cb7bab9103a3ab93760691b604082015260600190565b634e487b7160e01b600052601160045260246000fd5b6000600019821415611ca257611ca2611c78565b5060010190565b600082821015611cbb57611cbb611c78565b500390565b60008219821115611cd357611cd3611c78565b500190565b6000816000190483118215151615611cf257611cf2611c78565b500290565b634e487b7160e01b600052601260045260246000fd5b600082611d1c57611d1c611cf7565b500490565b600082611d3057611d30611cf7565b500690565b634e487b7160e01b600052603260045260246000fdfea2646970667358221220bea89216767f1236e03a89c746584f7483311ca86125237770146468a0bbf2d364736f6c63430008090033",
  "linkReferences": {},
  "deployedLinkReferences": {}
}